:020000021000EC
:1000000017E10200130101611755000013054506B1
:10001000975500009385C505175600001306C64E78
:1000200063FCC5008322050023A05500130545008D
:1000300093854500E3E8C5FE175500001305C54C40
:10004000975500009385855C6378B50023200500F3
:1000500013054500E36CB5FE97320000938202C69B
:1000600073905230EF301013EF0000016F0000006A
:080070006F0000006780000032
:10007800130101FF23261100232481001304010129
:10008800EF30C00693070000138507008320C100E6
:10009800032481001301010167800000130101FEA0
:1000A800232E8100130401022326A4FE9307F0FFE8
:1000B800138507000324C1011301010267800000B2
:1000C800130101FE232E1100232C810013040102C9
:1000D8002326A4FE13059000EFF05FFC93070500AC
:1000E800138507008320C101032481011301010244
:1000F80067800000130101FE232E81001304010212
:100108002326A4FE9307F0FF138507000324C101EB
:100118001301010267800000130101FE232E110064
:10012800232C8100130401022326A4FE2324B4FEF9
:100138000325C4FEEF30106F93070500638C07009A
:10014800832784FE3727000023A2E70093070000D7
:100158006F00000113059000EFF0DFF99307050029
:10016800138507008320C1010324810113010102C3
:1001780067800000130101FE232E81001304010291
:100188002326A4FE0327C4FE930710006308F70084
:100198000327C4FE930720006316F7009307100097
:1001A8006F00800093070000138507000324C10136
:1001B8001301010267800000130101FE232E810054
:1001C800130401022326A4FE9307F0FF13850700FA
:1001D8000324C1011301010267800000130101FE1D
:1001E800232E1100232C8100130401022326A4FED0
:1001F8002324B4FE2322C4FE0325C4FEEF309062FC
:100208009307050063860700930700006F0000014D
:1002180013059000EFF05FFA9307050013850700B8
:100228008320C101032481011301010267800000BA
:10023800130101FE232E8100130401022326A4FECC
:100248009307F0FF138507000324C101130101027E
:1002580067800000130101FE232E1100232C81006A
:10026800130401022326A4FE2324B4FE2322C4FE81
:1002780013059000EFF0DFFB9307050013850700D7
:100288008320C1010324810113010102678000005A
:10029800130101FE232E8100130401022326A4FE6C
:1002A800B757010003A7874E8327C4FE3307F7001B
:1002B800B7570100938787606360F702B75701005B
:1002C80003A7874E8327C4FE3307F700B7E702006A
:1002D8009387476063F6E7009307F0FF6F0000031A
:1002E800B757010003A7874E8327C4FE3307F700DB
:1002F800B757010023A4E74EB757010003A7874E5D
:100308008327C4FEB307F040B307F700138507003F
:100318000324C1011301010267800000130101FEDB
:10032800232E8100130401022326A4FE9307F0FF65
:10033800138507000324C10113010102678000002F
:10034800130101FD23261102232481021304010352
:10035800232EA4FC232CB4FC232AC4FC832784FD6D
:100368002324F4FE832744FD2322F4FE0325C4FD41
:10037800EF30504B93070500638A0706232604FED7
:100388006F008005032784FE8327C4FEB307F700A8
:1003980083C7070093850700B75701001385C75A1D
:1003A800EF20C02D032784FE8327C4FEB307F70080
:1003B80003C707009307A000631AF7009305D0004E
:1003C800B75701001385C75AEF20402B8327C4FE77
:1003D800938717002326F4FE0327C4FE832744FDD2
:1003E800E362F7FA832744FD6F00000113059000CC
:1003F800EFF0DFF293070500138507008320C102A1
:10040800032481021301010367800000130101FE28
:10041800232E1100232C8100130401022326A4FE9D
:100428008327C4FE639A070093054002B75701006B
:100438001385C706EF2050748327C4FE1307B00046
:100448002390E7008327C4FE130710002381E700E9
:100458008327C4FEA38107008327C4FE23820700E5
:100468008327C4FEA38207008327C4FE23830700D3
:100478008327C4FEA38307008327C4FE23840700C1
:100488008327C4FEA38407008327C4FE1307F0FF55
:1004980023A6E7008327C4FE238807008327C4FE1A
:1004A80013072000A388E7008327C4FE372700F836
:1004B80023AAE700130000008320C101032481015F
:1004C8001301010267800000130101FD23261102B8
:1004D8002324810213040103232EA4FC8327C4FDD3
:1004E800639A07009305D005B75701001385C7061F
:1004F800EF2090688327C4FD83A74701639A07000C
:100508009305E005B75701001385C706EF20D066AD
:10051800232604FE232004FE232204FE232404FEB3
:100528008327C4FD83D7070013850700EF00905E7B
:100538002326A4FE8327C4FD83D70700138507005D
:10054800EF00D03F930705002310F4FEB717010012
:10055800938707FA2322F4FE8327C4FD2324F4FE9D
:100568008327C4FD83C70701638007048327C4FD6D
:1005780003D707008327C4FD83C7170193850700A6
:1005880013050700EF00D0678327C4FD03D70700D2
:10059800930704FE9305070013850700EF10401C1E
:1005A8000325C4FEEF10C00A0325C4FDEF000003B5
:1005B8000325C4FDEF0040590325C4FDEF000021C9
:1005C8000325C4FDEF00803B130000008320C10217
:1005D800032481021301010367800000130101FD58
:1005E800232611022324810213040103232EA4FCD1
:1005F8008327C4FD639A07009305F008B7570100E5
:100608001385C706EF2050578327C4FD83A74701EA
:10061800639A070093050009B75701001385C706B9
:10062800EF209055232604FE8327C4FD83C72700A7
:10063800A305F4FE8327C4FD83A7C7002322F4FE85
:100648008347B4FE638007020347B4FE9307100094
:10065800630AF70093056009B75701001385C706B9
:10066800EF2090518327C4FD83A7470183A7870202
:100678002326F4FE0347B4FE930710006314F70221
:100688000327C4FE832744FEB367F7002326F4FE3E
:100698008327C4FD83A747010327C4FE23A4E702D9
:1006A8006F008002832744FE93C7F7FF0327C4FE29
:1006B800B377F7002326F4FE8327C4FD83A74701F9
:1006C8000327C4FE23A4E702130000008320C1020D
:1006D800032481021301010367800000130101FD57
:1006E800232611022324810213040103232EA4FCD0
:1006F8008327C4FD639A07009305900BB757010041
:100708001385C706EF2050478327C4FD83A74701F9
:10071800639A07009305A00BB75701001385C70616
:10072800EF2090458327C4FD83A7C7002326F4FE46
:100738008327C4FD83A747010327C4FE23A8E70234
:10074800130000008320C102032481021301010366
:1007580067800000130101FD232611022324810272
:1007680013040103232EA4FC8327C4FD639A070006
:100778009305700CB75701001385C706EF20D03FCB
:100788008327C4FD83A74701639A07009305800C5C
:10079800B75701001385C706EF20103E8327C4FD15
:1007A80083A7C7002326F4FE8327C4FD83A7470138
:1007B8000327C4FE23A6E702130000008320C1021A
:1007C800032481021301010367800000130101FD66
:1007D800232611022324810213040103232EA4FCDF
:1007E8008327C4FD639A07009305F00EB7570100ED
:1007F8001385C706EF2050388327C4FD83A7470118
:10080800639A07009305000FB75701001385C706C1
:10081800EF209036232604FE8327C4FD83C75700A4
:10082800A305F4FE8327C4FD83C767002305F4FEF0
:100838008327C4FD83A7C7002322F4FE8347B4FEA1
:10084800638007020347B4FE93071000630AF700AA
:100858009305700FB75701001385C706EF20D031F5
:100868008347A4FE638007020347A4FE9307100092
:10087800630AF7009305800FB75701001385C70671
:10088800EF20902F0347B4FE930710006314F70A74
:100898008327C4FD83A7470183A707042326F4FE03
:1008A8000327C4FE832744FEB367F7002326F4FE1C
:1008B8008327C4FD83A747010327C4FE23A0E704B9
:1008C8008347A4FE639E07028327C4FD83A74701CD
:1008D80083A747042326F4FE832744FE93C7F7FF24
:1008E8000327C4FEB377F7002326F4FE8327C4FD4D
:1008F80083A747010327C4FE23A2E7046F00C006AD
:100908008327C4FD83A7470183A747042326F4FE52
:100918000327C4FE832744FEB367F7002326F4FEAB
:100928008327C4FD83A747010327C4FE23A2E70446
:100938006F0080038327C4FD83A7470183A70704AB
:100948002326F4FE832744FE93C7F7FF0327C4FE3C
:10095800B377F7002326F4FE8327C4FD83A7470156
:100968000327C4FE23A0E704130000008320C1026C
:10097800032481021301010367800000130101FDB4
:10098800232611022324810213040103232EA4FC2D
:100998008327C4FD639A070093054013B7570100E6
:1009A8001385C706EF20501D8327C4FD83A7470181
:1009B800639A070093055013B75701001385C706BC
:1009C800EF20901B232604FE8327C4FD83C77700EE
:1009D800A305F4FE8327C4FD83C787002305F4FE1F
:1009E8008327C4FD83C79700A304F4FE8327C4FDAF
:1009F80083A7C7002322F4FE8347B4FE638007025F
:100A08000347B4FE93071000630AF7009305D01359
:100A1800B75701001385C706EF2010168347A4FEB9
:100A2800638007020347A4FE93071000630AF700D8
:100A38009305E013B75701001385C706EF20D013BD
:100A48000347B4FE93071000631CF70A8327C4FD0D
:100A580083A7470183A747072326F4FE8347A4FEFD
:100A6800639E07020327C4FEB707008093C7F7FFFA
:100A7800B377F7002326F4FE834794FE0327C4FECA
:100A8800B367F7002326F4FE8327C4FD83A7470135
:100A98000327C4FE23AAE7066F0040030327C4FE0A
:100AA800B7070080B367F7002326F4FE834794FE58
:100AB8000327C4FEB367F7002326F4FE8327C4FD8B
:100AC80083A747010327C4FE23AAE7068327C4FD9B
:100AD80083A7470183A707072326F4FE0327C4FE3D
:100AE800832744FEB367F7002326F4FE8327C4FD5B
:100AF80083A747010327C4FE23A8E7066F008003E6
:100B08008327C4FD83A7470183A707072326F4FE8D
:100B1800832744FE93C7F7FF0327C4FEB377F70084
:100B28002326F4FE8327C4FD83A747010327C4FEB9
:100B380023A8E706130000008320C10203248102D2
:100B48001301010367800000130101FD2326110230
:100B58002324810213040103232EA4FC8327C4FD4C
:100B6800639A07009305F017B75701001385C70666
:100B7800EF2090008327C4FD83A74701639A0700ED
:100B880093050018B75701001385C706EF20C07EEC
:100B9800232604FE232404FE8327C4FD83C73700CD
:100BA800A303F4FE8327C4FD83C747002303F4FE91
:100BB8008327C4FD83A7C7002320F4FE834774FE60
:100BC80063800702034774FE93071000630AF70067
:100BD80093058018B75701001385C706EF20C07921
:100BE800834764FE63880704034764FE9307200075
:100BF8006302F704034764FE93073000630CF702AF
:100C0800034764FE930750006306F702034764FE38
:100C1800930760006300F702034764FE93077000C0
:100C2800630AF70093059018B75701001385C706A4
:100C3800EF208074034774FE930710006314F71CB9
:100C48008327C4FD83A7470183A707052324F4FE50
:100C5800032784FE832704FEB367F7002324F4FEEA
:100C68008327C4FD83A74701032784FE23A8E7043D
:100C7800232604FE6F0000188327C4FE1307100004
:100C8800B317F70013870700832704FEB377F7002D
:100C9800638C07140327C4FE9307700063E4E7041A
:100CA8008327C4FD83A7470183A747052324F4FEB0
:100CB800034764FE8327C4FE93972700B317F70002
:100CC80013870700832784FEB3E7E7002324F4FE95
:100CD8008327C4FD83A74701032784FE23AAE704CB
:100CE8006F0080100327C4FE9307F00063EAE7044F
:100CF8008327C4FD83A7470183A787052324F4FE20
:100D0800034764FE8326C4FEB7070040938787FF26
:100D1800B387F60093972700B317F70013870700E8
:100D2800832784FEB3E7E7002324F4FE8327C4FD6A
:100D380083A74701032784FE23AAE7046F00C00A9C
:100D48000327C4FE9307700163EAE7048327C4FD01
:100D580083A7470183A7C7052324F4FE034764FE3E
:100D68008326C4FEB7070040938707FFB387F600C2
:100D780093972700B317F70013870700832784FE8C
:100D8800B3E7E7002324F4FE8327C4FD83A74701C4
:100D9800032784FE23AAE7046F0000058327C4FD08
:100DA80083A7470183A707062324F4FE034764FEAD
:100DB8008326C4FEB7070040938787FEB387F600F3
:100DC80093972700B317F70013870700832784FE3C
:100DD800B3E7E7002324F4FE8327C4FD83A7470174
:100DE800032784FE23AAE7048327C4FE93871700FA
:100DF8002326F4FE0327C4FE9307F001E3FEE7E68B
:100E08006F00C0000325C4FDEF008001130000003F
:100E18008320C102032481021301010367800000BB
:100E2800130101FD23261102232481021304010367
:100E3800232EA4FC8327C4FD639A07009305501F43
:100E4800B75701001385C706EF2000538327C4FD59
:100E580083A74701639A07009305601FB7570100EE
:100E68001385C706EF204051232604FE8327C4FDBF
:100E780083A7C7002324F4FE8327C4FD83A7470163
:100E880083A707052326F4FE832784FE93C7F7FF6D
:100E98000327C4FEB377F7002326F4FE8327C4FD97
:100EA80083A747010327C4FE23A8E7041300000013
:100EB8008320C1020324810213010103678000001B
:100EC800130101FE232E1100232C810013040102BB
:100ED8002326A4FE8327C4FE639A07009305702087
:100EE800B75701001385C706EF2000498327C4FEC2
:100EF80083A74701639A070093058020B75701002D
:100F08001385C706EF2040478327C4FE83A7470100
:100F180083A74706138507008320C10103248101A5
:100F28001301010267800000130101FE232E110046
:100F3800232C8100130401022326A4FE2324B4FEDB
:100F48008327C4FE639A070093054021B757010021
:100F58001385C706EF2040428327C4FE83A74701B5
:100F6800639A070093055021B75701001385C706F8
:100F7800EF2080408327C4FE83A74701032784FE10
:100F880023A2E706130000008320C1010324810186
:100F98001301010267800000130101FD23261102DD
:100FA8002324810213040103232EA4FC232604FE18
:100FB800232404FE8327C4FD638A07028327C4FD14
:100FC8002324F4FE032584FEEFF09FEF2326A4FEDE
:100FD8008325C4FE032584FEEF0040038325C4FE59
:100FE800032584FEEFF05FF46F000001B75701009E
:100FF8001385C708EF20D069130000008320C102C1
:10100800032481021301010367800000130101FD1D
:10101800232611022324810213040103232EA4FC96
:10102800232CB4FC232604FE232604FE6F00C002F2
:101038008327C4FE13071000B317F70013870700B0
:10104800832784FDB377F700639007028327C4FEE4
:10105800938717002326F4FE0327C4FE9307F001A5
:10106800E3F8E7FC6F008000130000008327C4FE4C
:101078001387F7FF9307F00163E8E7000325C4FD32
:10108800EF0000026F008000130000001300000052
:101098008320C10203248102130101036780000039
:1010A800130101FE232E1100232C810013040102D9
:1010B8002326A4FEB75701001385870AEF20505D49
:1010C800130000008320C1010324810113010102E0
:1010D80067800000130101FE232E81001304010222
:1010E800231704FEB707E0F89387470083A7070094
:1010F8002317F4FE8357E4FE138507000324C10178
:101108001301010267800000130101FE232E8100F4
:1011180013040102930705002317F4FEB707E0F84C
:10112800938747000357E4FE23A0E700130000005D
:101138000324C1011301010267800000130101FEAD
:10114800232E1100232C81001304010293070500AC
:101158002317F4FE8357E4FE6382070A0357E4FE6D
:1011680093071000630CF7080357E4FE9307200069
:101178006306F7080357E4FE930730006300F70897
:101188000357E4FE93074000630AF7060357E4FE9B
:10119800930750006304F7060357E4FE93076000C3
:1011A800630EF7040357E4FE930770006308F7041F
:1011B8000357E4FE930780006302F7040357E4FE35
:1011C80093079000630CF7020357E4FE9307A0000F
:1011D8006306F7020357E4FE9307B0006300F702C3
:1011E8000357E4FE9307C000630AF7009305500510
:1011F800B75701001385870CEF2000188357E4FECA
:10120800375701001307473B93974700B307F70089
:1012180083D72700138507008320C1010324810198
:101228001301010267800000130101FE232E110043
:10123800232C810013040102930705002317F4FEF1
:101248008357E4FE6382070A0357E4FE93071000FE
:10125800630CF7080357E4FE930720006306F708BA
:101268000357E4FE930730006300F7080357E4FED2
:1012780093074000630AF7060357E4FE93075000FC
:101288006304F7060357E4FE93076000630EF70450
:101298000357E4FE930770006308F7040357E4FE5E
:1012A800930780006302F7040357E4FE9307900056
:1012B800630CF7020357E4FE9307A0006306F702E6
:1012C8000357E4FE9307B0006300F7020357E4FEF8
:1012D8009307C000630AF70093051006B75701008B
:1012E8001385870CEF2040098357E4FE3757010028
:1012F8001307473B93974700B307F70083A74700B7
:10130800138507008320C101032481011301010211
:1013180067800000130101FE232E1100232C810099
:1013280013040102930705002317F4FE8357E4FE14
:101338006382070A0357E4FE93071000630CF7085B
:101348000357E4FE930720006306F7080357E4FEFB
:10135800930730006300F7080357E4FE9307400043
:10136800630AF7060357E4FE930750006304F70681
:101378000357E4FE93076000630EF7040357E4FE87
:10138800930770006308F7040357E4FE930780008F
:101398006302F7040357E4FE93079000630CF70217
:1013A8000357E4FE9307A0006306F7020357E4FE21
:1013B8009307B0006300F7020357E4FE9307C000E9
:1013C800630AF70093059007B75701001385870C48
:1013D800EF10907A8357E4FE375701001307473B15
:1013E80093974700B307F70083A7C7001385070043
:1013F8008320C101032481011301010267800000D9
:10140800130101FD23261102232481021304010381
:101418009307050013870500231FF4FC93070700B3
:10142800A30EF4FC8357E4FD6382070A0357E4FD27
:1014380093071000630CF7080357E4FD9307200097
:101448006306F7080357E4FD930730006300F708C5
:101458000357E4FD93074000630AF7060357E4FDCA
:10146800930750006304F7060357E4FD93076000F1
:10147800630EF7040357E4FD930770006308F7044D
:101488000357E4FD930780006302F7040357E4FD64
:1014980093079000630CF7020357E4FD9307A0003D
:1014A8006306F7020357E4FD9307B0006300F702F1
:1014B8000357E4FD9307C000630AF700930550083B
:1014C800B75701001385870CEF10106B8347D4FDC5
:1014D800638C07020347D4FD930710006306F702E5
:1014E8000347D4FD930720006300F7020347D4FDA8
:1014F80093073000630AF70093056008B7570100A7
:101508001385870CEF105067232604FE8357E4FDEC
:1015180013850700EFF05FD12326A4FE0327C4FE3E
:10152800B707C0F8B307F700138707008347D4FD50
:101538002320F700130000008320C1020324810246
:101548001301010367800000130101FD2326110226
:10155800232481021304010393070500231FF4FCCD
:101568008357E4FD6382070A0357E4FD93071000DD
:10157800630CF7080357E4FD930720006306F70898
:101588000357E4FD930730006300F7080357E4FDB1
:1015980093074000630AF7060357E4FD93075000DA
:1015A8006304F7060357E4FD93076000630EF7042E
:1015B8000357E4FD930770006308F7040357E4FD3D
:1015C800930780006302F7040357E4FD9307900034
:1015D800630CF7020357E4FD9307A0006306F702C4
:1015E8000357E4FD9307B0006300F7020357E4FDD7
:1015F8009307C000630AF70093055009B757010025
:101608001385870CEF105057930740002326F4FEEC
:10161800232404FE8357E4FD13850700EFF0DFC0A1
:101628002324A4FE032784FEB707C0F8B307F700F6
:1016380083A707002326F4FE8327C4FE138507002B
:101648008320C10203248102130101036780000083
:10165800130101FD2326110223248102130401032F
:10166800232EA4FC232604FEEF0080032326A4FED9
:101678000327C4FE8327C4FDB367F7002326F4FEBF
:10168800B727C0F80327C4FE23A0E7001300000013
:101698008320C10203248102130101036780000033
:1016A800130101FF2326810013040101B727C0F8A5
:1016B80083A70700138507000324C1001301010154
:1016C80067800000130101FE232E1100232C8100E6
:1016D8001304010293070500A307F4FE8347F4FEF1
:1016E800638C07020347F4FE930710006306F702B2
:1016F8000347F4FE930720006300F7020347F4FE54
:1017080093073000630AF7009305000DB7570100EF
:101718001385870CEF105046B707E0F80347F4FE2F
:1017280023A0E700130000008320C10103248101E6
:101738001301010267800000130101FF23268100C5
:1017480013040101B707E0F883A7070093F7F70F21
:10175800138507000324C1001301010167800000FD
:10176800130101FE232E1100232C81001304010212
:101778002326A4FE938705002315F4FE8357A4FEB1
:101788006382070A0357A4FE93071000630CF70847
:101798000357A4FE930720006306F7080357A4FE27
:1017A800930730006300F7080357A4FE930740002F
:1017B800630AF7060357A4FE930750006304F7066D
:1017C8000357A4FE93076000630EF7040357A4FEB3
:1017D800930770006308F7040357A4FE930780007B
:1017E8006302F7040357A4FE93079000630CF70203
:1017F8000357A4FE9307A0006306F7020357A4FE4D
:101808009307B0006300F7020357A4FE9307C000D4
:10181800630AF7009305600EB75701001385870C1C
:10182800EF1090358327C4FE639A07009305700E66
:10183800B75701001385870CEF1010340357A4FE27
:101848008327C4FE83D60700B757010013860751C4
:101858009307070093971700B387E700939727002C
:10186800B307F6002390D7000357A4FE8327C4FECE
:1018780083A64700B757010013860751930707004F
:1018880093971700B387E70093972700B307F600ED
:1018980023A2D7000357A4FE8327C4FE83A687008C
:1018A800B75701001386075193070700939717004E
:1018B800B387E70093972700B307F60023A4D70060
:1018C800130000008320C1010324810113010102D8
:1018D80067800000130101FD2326110223248102E1
:1018E80013040103231104FE231004FE231704FE2E
:1018F800231F04FCA30E04FC230E04FC9307D00052
:101908002324F4FE232204FEF327003093800700EB
:1019180093870000232CF4FCEFF01FE293070500E7
:10192800230EF4FCEFF00FFB930705002310F4FEE1
:10193800232204FE6F008005B75701001387473B39
:10194800832744FE93974700B307F70083D7270000
:10195800231FF4FC035704FE8357E4FD6312F702C8
:10196800B75701001387473B832744FE93974700E7
:10197800B307F70083D707002324F4FE6F00C001E4
:10198800832744FE938717002322F4FE032744FE8F
:101998009307C000E3F2E7FA032784FE9307C00029
:1019A80063E6E706832784FE9397070193D7070129
:1019B80013850700EFF05FB993070500A30EF4FC49
:1019C8008347D4FD13850700EFF0DFCF832784FD1D
:1019D80093E78700232AF4FC832744FD739007309C
:1019E800B757010093860751032784FE9307070022
:1019F80093971700B387E70093972700B387F600FC
:101A080083D707002317F4FE6F008000EF00C00B98
:101A18000357E4FE835704FE631CF708B757010019
:101A280093860751032784FE9307070093971700AF
:101A3800B387E70093972700B387F60083A747008B
:101A480063880706B757010093860751032784FE6A
:101A58009307070093971700B387E700939727002A
:101A6800B387F60003A64700B757010093860751CE
:101A7800032784FE9307070093971700B387E700AF
:101A880093972700B387F60083A78700138507007D
:101A9800E7000600835704FE13850700EFF0CFE642
:101AA8008347C4FD13850700EFF0DFC16F00800096
:101AB800EF008001130000008320C102032481028B
:101AC8001301010367800000130101FF23261100A1
:101AD8002324810013040101B75701001385870EE1
:101AE800EF20003B130000008320C1000324810085
:101AF8001301010167800000130101FE232E11006C
:101B0800232C8100130401022326A4FE8327C4FE8C
:101B1800639A070093054001B75701001385071022
:101B2800EF1090058327C4FE239007008327C4FE87
:101B380023A407008327C4FE23A607008327C4FE27
:101B4800130710002388E7008327C4FE130710003B
:101B5800A388E7008327C4FE37D77B021307A7862D
:101B680023A2E7008327C4FE371700F823AAE7005B
:101B7800130000008320C101032481011301010225
:101B880067800000130101FD23261102232481022E
:101B980013040103232EA4FC8327C4FD639A0700C2
:101BA8009305A003B757010013850710EF10C07CF9
:101BB8008327C4FD83A74701639A07009305B003F1
:101BC800B757010013850710EF10007B8327C4FD6A
:101BD80083D70700638A07009305C003B75701003E
:101BE80013850710EF104079232004FE232204FEFA
:101BF800232404FE232604FE8327C4FD83D707007D
:101C080013850700EFF00FF12326A4FE8327C4FDF8
:101C180083D7070013850700EFF04FD2930705001D
:101C28002310F4FEB7270100938787F12322F4FEDF
:101C38008327C4FD2324F4FE8327C4FD83C707013B
:101C4800638007048327C4FD03D707008327C4FDE7
:101C580083C717019385070013050700EFF04FFAB4
:101C68008327C4FD03D70700930704FE93050700E5
:101C780013850700EFF0DFAE0325C4FEEFF05F9D8C
:101C88000325C4FDEF008001130000008320C1027A
:101C9800032481021301010367800000130101FB83
:101CA800232611042324810423222105232031051E
:101CB800232E4103232C5103232A61032328710374
:101CC800232681032324910313040105232EA4FA58
:101CD8008327C4FB639A07009305B006B757010032
:101CE80013850710EF1040698327C4FB83A74701BA
:101CF800639A07009305C006B757010013850710BC
:101D0800EF108067232604FC232404FC93070000BB
:101D1800130800002320F4FC232204FD8327C4FBBE
:101D280083A7470113850700EF00000D2326A4FCB5
:101D38008327C4FB83A7470113850700EF004010E2
:101D48002324A4FC832784FC138C0700930C000035
:101D580093190C00130900008327C4FC138B070098
:101D6800930B0000B36769012320F4FCB3E7790102
:101D78002322F4FC8327C4FB83A74700138A0700A8
:101D8800930A0000832604FC032744FCB38746011A
:101D9800138607003336D600330857013307060188
:101DA800130807002320F4FC232204FD8327C4FB27
:101DB80083A74701832504FC032644FC13850700F9
:101DC800EF00800C130000008320C1040324810469
:101DD8000329410483290104032AC103832A8103B7
:101DE800032B4103832B0103032CC102832C8102A3
:101DF8001301010567800000130101FE232E110065
:101E0800232C8100130401022326A4FE8327C4FE89
:101E1800639A070093050008B75701001385071058
:101E2800EF1080558327C4FE83A70700138507009A
:101E38008320C1010324810113010102678000008E
:101E4800130101FE232E1100232C8100130401022B
:101E58002326A4FE8327C4FE639A07009305B008CF
:101E6800B757010013850710EF1000518327C4FEF0
:101E780083A74700138507008320C101032481013C
:101E88001301010267800000130101FD23261102DE
:101E98002324810223222103232031031304010375
:101EA800232EA4FC2328B4FC232AC4FC8327C4FDC6
:101EB800639A070093056009B75701001385071057
:101EC800EF10804B832704FD2326F4FE832744FD6F
:101ED80013D9070093090000232424FF8327C4FD96
:101EE800032784FE23A6E7008327C4FD0327C4FE37
:101EF80023A4E700130000008320C1020324810209
:101F080003294102832901021301010367800000AC
:101F1800130101FD23261102232481021304010366
:101F2800232EA4FC232604FE8327C4FD638A07000E
:101F38008327C4FD2326F4FE0325C4FEEFF01FD635
:101F4800130000008320C10203248102130101034E
:101F580067800000130101FE232E1100232C81004D
:101F6800130401022326A4FE8327C4FE639A0700F4
:101F780093052002B757010013850712EF10C03FE1
:101F88008327C4FE130710002390E7008327C4FEAD
:101F980023A207008327C4FE23A407008327C4FEC7
:101FA800239607008327C4FE239707008327C4FED0
:101FB800239807008327C4FE239907008327C4FEBC
:101FC80013077000238CE7008327C4FE238B0700C8
:101FD8008327C4FE13073000A38CE7008327C4FEC1
:101FE800238D07008327C4FE13070001A38BE70096
:101FF8008327C4FEA38D07008327C4FE1307B002FE
:10200800239AE7008327C4FE238E07008327C4FE94
:1020180013073000A38EE7008327C4FE373700F884
:1020280023A0E702130000008320C10103248101DB
:102038001301010267800000130101FD232611022C
:102048002324810213040103232EA4FC8327C4FD47
:10205800639A070093050006B75701001385071216
:10206800EF1080318327C4FD83A70702639A070016
:1020780093051006B757010013850712EF10C02FFC
:10208800232604FE232004FE232204FE232404FE28
:102098008327C4FD83D7070013850700EFF08FA7B8
:1020A8002326A4FE8327C4FD83D7070013850700D2
:1020B800EFF0CF88930705002310F4FEB73701002F
:1020C8009387C7812322F4FE8327C4FD2324F4FECB
:1020D8008327C4FD83C7C701638007048327C4FD22
:1020E80003D707008327C4FD83C7D701938507005B
:1020F80013050700EFF0CFB08327C4FD03D707000F
:10210800930704FE9305070013850700EFF04FE5DA
:102118000325C4FEEFF0CFD30325C4FDEF008016DE
:102128000325C4FDEF00C0280325C4FDEF000030DF
:102138000325C4FDEF00803E0325C4FDEF00404C9D
:102148000325C4FDEF00001F0325C4FDEF00005D5B
:10215800130000008320C10203248102130101033C
:1021680067800000130101FD232611022324810248
:1021780013040103232EA4FC8327C4FD639A0700DC
:102188009305C008B757010013850712EF10C01E4A
:102198008327C4FD83A70702639A07009305D00825
:1021A800B757010013850712EF10001D8327C4FDE0
:1021B80083A707022326F4FEA30504FE8327C4FE93
:1021C80083A7C702A305F4FE8347B4FE93E707F885
:1021D800A305F4FE0347B4FE8327C4FE23A6E70243
:1021E800130000008320C1020324810213010103AC
:1021F80067800000130101FD2326110223248102B8
:1022080013040103232EA4FC8327C4FD639A07004B
:102218009305D009B757010013850712EF10C015B1
:102228008327C4FD83A70702639A07009305E00983
:10223800B757010013850712EF1000148327C4FD58
:1022480083A707022326F4FEA30504FE8327C4FE02
:1022580083A7C702A305F4FE8347B4FE93F7F707E5
:10226800A305F4FE0347B4FE8327C4FE23A6E702B2
:10227800130000008320C10203248102130101031B
:1022880067800000130101FD232611022324810227
:1022980013040103232EA4FC8327C4FD639A0700BB
:1022A8009305E00AB757010013850712EF10C00C19
:1022B8008327C4FD83A70702639A07009305F00AE2
:1022C800B757010013850712EF10000B8327C4FDD1
:1022D80083A707022326F4FE8327C4FD83D747017B
:1022E8002315F4FE0325C4FDEFF0DFE78357A4FEB2
:1022F80013F7F70F8327C4FE23A0E7028357A4FE32
:1023080093D787009397070193D7070113F7F70F20
:102318008327C4FE23A2E7020325C4FDEFF09FED47
:10232800130000008320C10203248102130101036A
:1023380067800000130101FD232611022324810276
:1023480013040103232EA4FC8327C4FD639A07000A
:102358009305700DB757010013850712EF10C001E0
:102368008327C4FD83A70702639A07009305800D9E
:10237800B757010013850712EF1000008327C4FD2B
:1023880083A707022326F4FE8327C4FD83C797018A
:10239800138707008327C4FE23A6E7021300000063
:1023A8008320C10203248102130101036780000016
:1023B800130101FD232611022324810213040103C2
:1023C800232EA4FC8327C4FD639A07009305300FCE
:1023D800B757010013850712EF00107A8327C4FD51
:1023E80083A70702639A07009305400FB7570100B8
:1023F80013850712EF0050788327C4FD83A70702CF
:102408002326F4FE8327C4FD83C7870113870700AB
:102418008327C4FE23A4E702130000008320C1021F
:10242800032481021301010367800000130101FDE9
:10243800232611022324810213040103232EA4FC62
:102448008327C4FD639A070093058012B7570100DC
:1024580013850712EF0050728327C4FD83A7070274
:10246800639A070093059012B75701001385071266
:10247800EF0090708327C4FD83A707022326F4FE8C
:102488008327C4FD83C77701138707008327C4FE0A
:1024980023AAE700130000008320C102032481025D
:1024A8001301010367800000130101FD23261102B7
:1024B8002324810213040103232EA4FC8327C4FDD3
:1024C800639A070093056013B75701001385071235
:1024D800EF00906A8327C4FD83A70702639A070069
:1024E80093057013B757010013850712EF00D068E2
:1024F8008327C4FD83A707022326F4FE8327C4FE8F
:1025080083A7470393F7F70F138507008320C102BA
:10251800032481021301010367800000130101FEF7
:10252800232E1100232C8100130401022326A4FE6C
:102538008327C4FE639A070093054014B757010028
:1025480013850712EF0050638327C4FE83A7070291
:10255800639A070093055014B757010013850712B3
:10256800EF0090618327C4FE03C7A7018327C4FE39
:1025780083A7070223A8E702130000008320C101F4
:10258800032481011301010267800000130101FD8A
:10259800232611022324810213040103232EA4FC01
:1025A8008327C4FD639A07009305F015B757010008
:1025B80013850712EF00505C8327C4FD83A7070229
:1025C800639A070093050016B75701001385071291
:1025D800EF00905A8327C4FD83A707022326F4FE41
:1025E8008327C4FE83A7870393F7F70F1385070094
:1025F8008320C102032481021301010367800000C4
:10260800130101FD2326110223248102130401036F
:10261800232EA4FC8327C4FD639A07009305D016D4
:10262800B757010013850712EF0010558327C4FD23
:1026380083A70702639A07009305E016B7570100BE
:1026480013850712EF0050538327C4FD83A70702A1
:102658002326F4FE8327C4FD83C7B7011387070029
:102668008327C4FE23AEE702130000008320C102C3
:10267800032481021301010367800000130101FD97
:10268800232611022324810213040103232EA4FC10
:1026980093870500A30DF4FC8327C4FD639A070004
:1026A80093059018B757010013850712EF00D04C17
:1026B8008327C4FD83A70702639A07009305A01820
:1026C800B757010013850712EF00104B8327C4FD8D
:1026D80083A707022326F4FEA30504FE0325C4FDF1
:1026E800EFF09FDC93070500A305F4FE8347B4FED3
:1026F80093F70702E38407FE0347B4FD8327C4FE6C
:1027080023A0E70213000000130000008320C10289
:10271800032481021301010367800000130101FDF6
:10272800232611022324810213040103232EA4FC6F
:102738008327C4FD639A070093053022B757010029
:1027480013850712EF0050438327C4FD83A70702B0
:10275800639A070093054022B757010013850712B3
:10276800EF0090418327C4FD83A707022326F4FEC8
:102778008327C4FD83C76701138707008327C4FE27
:1027880023A2E702130000008320C1020324810270
:102798001301010367800000130101FD23261102C4
:1027A8002324810213040103232EA4FC8327C4FDE0
:1027B800639A070093050024B75701001385071291
:1027C800EF00903B8327C4FD83A70702639A0700A5
:1027D80093051024B757010013850712EF00D0396D
:1027E8008327C4FD83A707022326F4FE8327C4FE9C
:1027F80083A7870293F7F70F93F7F70093F7F70F7D
:10280800138507008320C1020324810213010103F9
:1028180067800000130101FD232611022324810291
:1028280013040103232EA4FCA30704FE232404FE9F
:102838008327C4FD638607028327C4FD2324F4FE8F
:10284800032584FEEFF05FF593070500A307F4FE68
:102858008307F4FE93850700032584FEEF008001BB
:10286800130000008320C102032481021301010325
:1028780067800000130101FE232E1100232C810024
:10288800130401022326A4FE93870500A305F4FE82
:102898008307B4FE1307C000636CF704139727007F
:1028A800B757010093874719B307F70083A70700B5
:1028B800678007000325C4FEEF0000056F00800352
:1028C8000325C4FEEF0040076F00C0020325C4FEC5
:1028D800EF00802C6F0000020325C4FEEF00403299
:1028E8006F0040010325C4FEEF0080346F008000B4
:1028F80013000000130000008320C101032481019C
:102908001301010267800000130101FE232E11004C
:10291800232C8100130401022326A4FE0325C4FEF0
:10292800EFF09FB8130000008320C1010324810148
:102938001301010267800000130101FD2326110223
:102948002324810213040103232EA4FC8327C4FD3E
:10295800639A07009305002AB757010013850712E9
:10296800EF0090218327C4FD83A70702639A07001D
:102978009305102AB757010013850712EF00D01FDF
:102988008327C4FD83A78700639A07009305202A3D
:10299800B757010013850712EF00101EA30504FEA8
:1029A8008327C4FD83A787002322F4FE0325C4FDE3
:1029B800EFF09FAF93070500A305F4FE8347B4FE2D
:1029C80093F717006380071CB757010083C7475068
:1029D8006392070AB757010083C75750639C0708DB
:1029E8008327C4FD03D727018327C4FD83D7E700C6
:1029F800637AF7068327C4FD83A7070203A70702A4
:102A08008327C4FD83D7270193860700832744FEC5
:102A1800B387D7001377F70F2380E7008327C4FD18
:102A280083D7270113870700832744FEB387E7006E
:102A380083C7070093850700B7570100138507145C
:102A4800EF1040278327C4FD83D7270193871700FA
:102A580013970701135707018327C4FD2399E7003C
:102A68006F0040128327C4FD83A7070283A70702CC
:102A78006F004011B757010083C7475063800708AC
:102A88008327C4FD83A7070283A70702A301F4FED7
:102A9800B757010083A7C74E034734FE1306070044
:102AA80093850700B757010013854715EF1080205D
:102AB800B757010083A7C74E034734FE2380E700BA
:102AC800B757010083A7C74E13871700B7570100F0
:102AD80023A6E74EB757010003A7C74EB707340030
:102AE8006362F70AB757010023820750B7570100FE
:102AF8003707300023A6E74E6F00C008B75701001C
:102B080083C7575063800708232604FE6F004005DB
:102B1800B757010083A7074F83C707002301F4FEB7
:102B2800B757010083A7074F034724FE1306070082
:102B380093850700B757010013854717EF108017D3
:102B4800B757010083A7074F13871700B75701002E
:102B580023A8E74E8327C4FE938717002326F4FE95
:102B68000327C4FEB7070400E344F7FAB757010088
:102B7800A3820750B75701003707300023A8E74E54
:102B88006F004000130000008320C102032481026B
:102B98001301010367800000130101FE232E1100B9
:102BA800232C8100130401022326A4FE8327C4FEDC
:102BB800639A07009305A02DB757010013850712E4
:102BC800EF00807B8327C4FE83A70702639A070070
:102BD8009305B02DB757010013850712EF00C07990
:102BE8008327C4FE83A7070283A7070213000000F8
:102BF8008320C101032481011301010267800000C1
:102C0800130101FE232E1100232C8100130401025D
:102C18002326A4FE0325C4FEEFF01FB8130000000E
:102C28008320C10103248101130101026780000090
:102C3800130101FE232E1100232C8100130401022D
:102C48002326A4FE0325C4FEEFF05F9413000000C2
:102C58008320C10103248101130101026780000060
:102C6800130101FD2326810213040103232EA4FC72
:102C78000327C4FD9307803E3307F7029307000F2D
:102C8800B357F7022326F4FE6F0000018327C4FE22
:102C98009387F7FF2326F4FE8327C4FEE39807FEF5
:102CA800130000000324C102130101036780000020
:102CB800130101F82320110023285100232A610061
:102CC800232C7100232E8100232091022322A102AC
:102CD8002324B1022326C1022328D102232AE10298
:102CE800232CF102232E0103232011052322210581
:102CF800232431052326410523285105232A61056C
:102D0800232C7105232E8105232091072322A10757
:102D18002324B1072326C1072328D107232AE10743
:102D2800232CF10773252034F325103413060100F2
:102D3800EF00802283200100832201010323410147
:102D4800832381010324C101832401020325410255
:102D5800832581020326C102832601030327410339
:102D6800832781030328C10383280104032941041D
:102D780083298104032AC104832A0105032B410501
:102D8800832B8105032CC105832C0106032D4106E5
:102D9800832D8106032EC106832E0107032F4107C9
:102DA800832F810713010108730020306F00000092
:102DB800130101FD232611022324810213040103B8
:102DC800232EA4FCB76700F82326F4FE8327C4FE4D
:102DD80023A00700B75701001385871CEF10400B8D
:102DE800130000008320C1020324810213010103A0
:102DF80067800000130101FC232E1102232C81029D
:102E0800232A2103232831032326410323245103A2
:102E1800232261032320710313040104B71700F868
:102E2800232EF4FC232C04FC232A04FC9307000023
:102E3800130800002324F4FC232604FD0325C4FD05
:102E4800EFE09FFB232CA4FC0325C4FDEFE05FFF0C
:102E5800232AA4FC832744FD138B0700930B00004F
:102E680093190B0013090000832784FD138A0700B8
:102E7800930A0000B36749012324F4FCB3E759011E
:102E88002326F4FC832684FC0327C4FCB7D57B02E5
:102E98009385A58613060000B387B600138507003F
:102EA8003335D5003308C700330705011308070079
:102EB8002324F4FC232604FD832584FC0326C4FC78
:102EC8000325C4FDEFE05FFC130000008320C1036D
:102ED800032481030329410383290103032AC1022F
:102EE800832A8102032B4102832B0102130101046F
:102EF80067800000130101FF2326110023248100AD
:102F080013040101B75701001385071EEF00905AFB
:102F18006F000000130101FE232E8100130401023B
:102F2800B7170000938787802326F4FE8327C4FE03
:102F380073A04730B7270000938787802324F4FEC7
:102F4800832784FE73900730130000000324C10117
:102F58001301010267800000130101FD23261102FD
:102F68002324810213040103232EA4FC232CB4FC84
:102F7800232AC4FC8327C4FD93D7F70193F7F70FDF
:102F88002326F4FE8327C4FD93F7F7002324F4FED9
:102F98008327C4FE638C0708032784FE9307700009
:102FA800630CF702032784FE9307B000630AF70255
:102FB800032784FE930730006314F706832744FD34
:102FC8009387C707032784FD23A0E700032544FD53
:102FD800EFF01FDE6F00C005EFF0DFE16F00400586
:102FE800B7170000938707802322F4FE832744FE47
:102FF80073A04730732510342322A100EFE09F8D82
:103008000325410073101534B71700009387878094
:103018002320F4FE832704FE73A047306F0040018D
:10302800EFF05FED130000006F008000EFF09FEC01
:10303800130000008320C10203248102130101034D
:1030480067800000130101FF23261100232481005B
:1030580013040101B75701009387875E1307200007
:1030680023A6E700B75701001385875EEFD00FE767
:1030780013055000EFF0DFBEB75701001385875ED8
:10308800EFD04FED130000008320C100032481001E
:103098001301010167800000130101FF23261100BD
:1030A8002324810013040101B75701009387875E29
:1030B8001307800023A6E700B75701001385875E32
:1030C800EFD0CFE11305A000EFF09FB9B75701008B
:1030D8001385875EEFD00FE8130000008320C1003E
:1030E800032481001301010167800000130101DE40
:1030F800232E1120232C812013040122B76700F806
:103108002326F4FEB75701001385C75AEFE09FE462
:10311800B75701009387C75A13071000238BE7009E
:10312800B75701009387C75A13071000238EE7008B
:10313800B75701001385C75AEFE01FF0B7570100D2
:103148001385875EEFD08FACB75701001385875E74
:10315800EFD08FB7B75701001385875EEFD00FD830
:10316800B75701001385075DEFE01F99B7570100B6
:103178001385075DEFE01FA1EFF0DFD9A30504FE7B
:10318800930784EE13070010130607009305000049
:1031980013850700EF00D009930784DE130700109A
:1031A800130607009305000013850700EF00500879
:1031B800B75701009387C75A130710002397E700F2
:1031C800B75701009387C75A23990700B7570100DB
:1031D8009387C75A130784DE23A4E700B757010073
:1031E80083C74750E39C07FEB757010083C7575072
:1031F800E39607FEB75701009387C75A03D72701FD
:10320800B75701009387C75A83D7E700E318F7FC3D
:10321800834784DE1307C00C6388E70A1307C00CD2
:10322800634CF7001307A00A6382E7021307B00B89
:10323800638CE7046F00C00F1307D00D6386E70C9B
:103248001307E00E638CE70C6F00800EB757010080
:1032580023820750B7570100A3820750B7570100D0
:1032680083C7475013870700B757010083C75750D4
:103278001386070093050700B75701001385C72574
:10328800EF0050236F00000CB75701001307100020
:103298002382E750B7570100A3820750B7570100B0
:1032A80083C7475013870700B757010083C7575094
:1032B8001386070093050700B757010013850728F1
:1032C800EF00501F6F000008B75701002382075016
:1032D800B757010013071000A382E750B757010042
:1032E80083C7475013870700B757010083C7575054
:1032F8001386070093050700B757010013850728B1
:10330800EF00501B6F000004EFF0DFD3B757010048
:103318001385072AEF00101A6F00C002EFF0DFD7FD
:10332800B75701001385072BEF00D0186F008001F5
:10333800B757010023820750B7570100A3820750EF
:1033480013000000B75701009387C75A2399070055
:10335800B75701009387C75A83D7E7001387070039
:10336800930784DE13060700930500001385070002
:10337800EF00006C6FF09FE6130101FE232E110091
:10338800232C8100130401022326A4FE2324B4FE67
:10339800032684FE8325C4FEB75701001385C72F73
:1033A800EF0050116F00000083D7C500130101FE24
:1033B800232C8100232A9100232E11002328210188
:1033C8002326310113F787009304050013840500B1
:1033D800631E071403A74500634AE00003A705041A
:1033E8006346E000130500006F00C0110327C40204
:1033F800E30A07FE03A904009396370123A00400FB
:1034080063DE060A032544058357C40093F7470083
:10341800638E0700832744003305F5408327440360
:1034280063860700832704043305F5408327C40215
:103438008325040213060500930600001385040083
:10344800E78007009307F0FF0357C4006312F502F3
:1034580083A604009307D00163E4D70CB707402084
:1034680093871700B3D7D70093F71700638A070A23
:1034780083270401232204002320F4009317370133
:1034880063DC07009307F0FF6316F50083A70400C9
:1034980063940700232AA4048325440323A024015A
:1034A800E38205F4930744046386F500138504005A
:1034B800EF00C059232A04026FF0DFF283250402CB
:1034C800930610001306000013850400E7000700A8
:1034D8009307F0FFE31AF5F283A70400E38607F2E7
:1034E8001307D0016386E700130760016396E700BE
:1034F80023A024016FF01FEF8357C40093E707044C
:103508002316F4008320C10103248101832441018F
:10351800032901018329C10013010102678000000A
:10352800136707042316E4006FF0DFFD83A9050184
:10353800E38A09EA03A9050093F7370023A03501B8
:1035480033093941130700006394070003A74501B5
:103558002324E400E35820E9832784028325040216
:10356800930609001386090013850400E780070005
:10357800634CA0008357C4001305F0FF93E70704CA
:103588002316F4006FF01FF8B389A9003309A94086
:103598006FF05FFC83A70501638A0708130101FE2A
:1035A800232C8100232E110013040500630C050051
:1035B80083278501639807002326B100EF00801751
:1035C8008325C100972700009387C7D66392F50229
:1035D800832544008397C50063800704130504000E
:1035E800032481018320C101130101026FF0DFDB95
:1035F80097270000938707D66396F50083258400F4
:103608006FF05FFD972700009387C7D0E394F5FC20
:103618008325C4006FF01FFC8320C10103248101AE
:103628001305000013010102678000001305000064
:1036380067800000130101FF232481002326110065
:10364800130405002316B5002317C5002320050021
:10365800232205002324050023220506232805002C
:10366800232A0500232C050013068000930500007B
:103678001305C505EF00C03B9717000093878787A0
:103688002322F402971700009387C78B2324F402A0
:1036980097170000938747932326F4029717000093
:1036A80093870798232084022328F4028320C100EB
:1036B80003248100130101016780000097050000C1
:1036C800938585ED6F004021130101FF23229100AE
:1036D800130680069384F5FFB384C40223202101D6
:1036E80013890500232481002326110093854407AC
:1036F800EF0080461304050063000502232005003F
:10370800232225011305C5002324A400138684065B
:1037180093050000EF00C031130504008320C100A9
:1037280003248100832441000329010013010101BE
:1037380067800000832785016396070A130101FF4C
:10374800232611002324810097070000938747F759
:103758002324F502972700009387C79083A70700C3
:103768002324050423260504232805046316F500ED
:1037780093071000232CF50013040500EF00C00682
:103788002322A40013050400EF0000062324A4004C
:1037980013050400EF0040052326A4000325440078
:1037A8001306000093054000EFF0DFE803258400CE
:1037B8001306100093059000EFF0DFE70325C4001F
:1037C8001306200093052001EFF0DFE693071000B1
:1037D800232CF4008320C10003248100130101017C
:1037E8006780000067800000130101FF9727000031
:1037F800938747872322910083A407002320210170
:103808002326110083A784012324810013090500BE
:103818006396070013850400EFF0DFF193848404B6
:1038280003A4840083A744009387F7FF63DA0700A3
:1038380083A704006380070883A404006FF05FFE79
:103848000317C40063140706B707FFFF9387170021
:103858002322040623200400232204002324040036
:103868002326F40023280400232A0400232C040020
:1038780013068000930500001305C405EF00401BE4
:10388800232A0402232C04022324040423260404E8
:10389800130504008320C100032481008324410010
:1038A8000329010013010101678000001304840645
:1038B8006FF09FF79305400013050900EFF0DFE074
:1038C80023A0A40013040500E31805F69307C0001D
:1038D8002320F9006FF0DFFB130101FD232481028F
:1038E80023202103232C4101232A5101232861018C
:1038F800232671012326110223229102232E31014E
:10390800130A0500938A05001304850413090000AF
:10391800130B1000930BF0FF631A04028320C102FB
:1039280003248102130509008324410203290102AB
:103938008329C101032A8101832A4101032B010143
:10394800832BC100130101036780000083248400D6
:10395800832944009389F9FF63D6090003240400EE
:103968006FF09FFB83D7C400637EFB008397E4005E
:10397800638A77019385040013050A00E7800A002B
:103988003369A900938484066FF0DFFC130101FFFB
:10399800971700009387476D2324810017140000B0
:1039A8001304846C3304F440232291002320210162
:1039B80023261100135424409304000013890700A0
:1039C80063908404971700009387076A1714000010
:1039D800130484693304F44013542440930400000E
:1039E80013890700639A84028320C100032481009D
:1039F80083244100032901001301010167800000AD
:103A080093972400B307F90083A707009384140051
:103A1800E78007006FF0DFFA93972400B307F900F7
:103A280083A7070093841400E78007006FF09FFBCB
:103A380013030500630A06002300B3001306F6FF0C
:103A480013031300E31A06FE678000006384051061
:103A580083A7C5FF130101FF23248100232611003A
:103A6800232291001384C5FF63D407003304F400B4
:103A780093040500EF00D02D97270000938787A8AF
:103A880083A70700639407022322040097270000F6
:103A980023AA87A6032481008320C100138504007C
:103AA80083244100130101016F00D02A6376F402D8
:103AB800832604003307D400639AE70003A70700AE
:103AC80083A747003307D7002320E4002322F4000C
:103AD8006FF0DFFB9307070003A7470063040700A5
:103AE800E37AE4FE83A607003386D70063188602CC
:103AF80003260400B386C60023A0D7003386D70068
:103B0800E31AC7F80326070003274700B306D600C1
:103B180023A0D70023A2E7006FF0DFF76378C40083
:103B28009307C00023A0F4006FF0DFF6032604001B
:103B3800B306C400631AD70083260700032747008B
:103B4800B386C6002320D4002322E40023A28700E2
:103B58006FF05FF467800000130101FE232A9100D3
:103B68009384350093F4C4FF232E1100232C810085
:103B78002328210123263101938484009307C00060
:103B880063FAF4069304C00063E8B4061309050059
:103B9800EF00101C972700009387C79603A707001C
:103BA80013040700631E0406972700009387C79530
:103BB80083A70700639C070093050000130509000D
:103BC800EF00402E9727000023A0A79493850400B8
:103BD80013050900EF00002D9309F0FF631C350B56
:103BE8009307C0002320F90013050900EF00901681
:103BF8006F000001E3DA04F89307C0002320F50002
:103C0800130500008320C10103248101832441019D
:103C1800032901018329C100130101026780000003
:103C280083270400B387974063C007069306B00054
:103C380063FAF6002320F4003304F40023209400F0
:103C48006F00400183274400631C87021727000088
:103C5800232AF78A13050900EF00D00F1305B400D3
:103C680093074400137585FF3307F540E30C07F805
:103C78003304E400B387A7402320F4006FF09FF8D3
:103C88002322F7006FF01FFD1307040003244400EC
:103C98006FF05FF1130435001374C4FFE30085FA75
:103CA800B305A44013050900EF00C01FE31835F958
:103CB8006FF01FF3130101FC232AF1022322B10242
:103CC8002324C1022326D1022328E102232C010345
:103CD800232E11039727000093878781232C8100C7
:103CE80003A40700232A9100232E11009304050042
:103CF800630A040083278401639607001305040000
:103D0800EFF05FA383258400930641021386040025
:103D1800130504002326D100EF00100F8320C101F2
:103D280003248101832441011301010467800000F9
:103D3800130101FE232A910023282101232E1100BB
:103D4800232C8100232631012324410193040500FB
:103D5800138905006308050083278501639407001C
:103D6800EFF05F9D83A7840103A484006396070096
:103D780013850400EFF01F9C971700009387875B5B
:103D8800631EF40403A444008357C40093F7870018
:103D9800638A070683270401638607069309F0FFF1
:103DA800130AA00083278400834509009387F7FF3F
:103DB800639405082324F40063D0070C1306040059
:103DC8009305A00013850400EF0000269307F0FF79
:103DD8006302F5041305A0006F00000497170000A4
:103DE800938747576316F40003A484006FF0DFF944
:103DF8009717000093870752E318F4F803A4C40048
:103E08006FF09FF89305040013850400EF00803AD3
:103E1800E30605F81305F0FF8320C101032481019F
:103E280083244101032901018329C100032A810058
:103E380013010102678000002324F400130919000C
:103E480063D807000327840163CEE700638C45012C
:103E580083270400138717002320E4002380B7007A
:103E68006FF05FF41306040013850400EF00C01B15
:103E7800E31A35F36FF01FFA83270400138717003E
:103E88002320E4001307A0002380E7006FF09FF4CD
:103E9800971700009387C7659305050003A50700DA
:103EA8006FF01FE9130101FF2324810013040500AB
:103EB800138505009717000023A207742326110015
:103EC800EFC00FBD9307F0FF631CF50097170000C4
:103ED8009387C77283A70700638407002320F40031
:103EE8008320C100032481001301010167800000C1
:103EF800130101FF23248100138405008395E50045
:103F080023261100EF10800463400502832744052F
:103F1800B387A700232AF4048320C1000324810067
:103F280013010101678000008357C40037F7FFFFC2
:103F38001307F7FFB3F7E7002316F4006FF0DFFD70
:103F480083D7C500130101FE232C8100232A910089
:103F58002328210123263101232E110093F707106E
:103F680093040500138405001309060093890600CD
:103F7800638A07008395E500930620001306000076
:103F8800EF0000408357C40037F7FFFF1307F7FF20
:103F9800B3F7E7002316F4008315E4000324810136
:103FA8008320C10193860900130609008329C100F3
:103FB800032901011385040083244101130101022F
:103FC8006F00001A130101FF2324810013840500E8
:103FD8008395E50023261100EF00803A9307F0FF50
:103FE8000357C4006312F502B7F7FFFF9387F7FF83
:103FF800B3F7E7002316F4008320C10003248100EF
:104008001301010167800000B7170000B367F700CC
:104018002316F400232AA4046FF01FFE8395E500FD
:104028006F0040316FC00F95130101FE232C8100F2
:10403800232A910023282101232E11002326310150
:10404800930405001389050013040600630805009E
:104058008327850163940700EFF0CFED97170000E1
:104068009387472D631EF40A03A444008327840121
:104078002324F4008357C40093F787006386070C52
:10408800832704016382070C8327040103250400A6
:104098009379F90F1379F90F3305F5408327440114
:1040A800634AF5009305040013850400EFF08FCEF2
:1040B8006314050A83278400130515009387F7FF07
:1040C8002324F40083270400138717002320E40027
:1040D8002380370183274401638CA7008357C400DA
:1040E80093F71700638E07009307A000631AF9007F
:1040F8009305040013850400EFF0CFC9631E05047F
:104108008320C1010324810113050900832441018F
:10411800032901018329C1001301010267800000FE
:1041280097170000938707236316F40003A48400FD
:104138006FF0DFF3971700009387C71DE318F4F2B9
:1041480003A4C4006FF09FF29305040013850400D4
:10415800EF004006E30A05F21309F0FF6FF05FFA7B
:10416800130101FF232481001304050013850500B2
:1041780093050600138606009717000023A007483A
:1041880023261100EFC0CF9B9307F0FF631CF500B7
:10419800971700009387874683A707006384070063
:1041A8002320F4008320C1000324810013010101AE
:1041B80067800000130101FF9717000093874733BA
:1041C8002322910083A407002324810023202101B6
:1041D800232611001309050013840500638A0400CF
:1041E80083A784016396070013850400EFF08FD43A
:1041F80097170000938707146318F40403A4440076
:104208000317C4009317070193D7070193F6870094
:104218006394060A93F60701639C060493079000CB
:104228002320F900136707042316E4001305F0FFA1
:104238008320C10003248100832441000329010055
:10424800130101016780000097170000938787100A
:104258006316F40003A484006FF09FFA9717000018
:104268009387470BE31EF4F803A4C4006FF05FF9CB
:1042780093F74700638C070283254403638C05008A
:10428800930744046386F50013050900EFF00FFC5B
:10429800232A04028357C4002322040093F7B7FD9E
:1042A8002316F400832704012320F4008357C40055
:1042B80093E787002316F40083270401639007021D
:1042C8008357C4001307002093F707286388E70083
:1042D8009305040013050900EF0080188357C400F4
:1042E80013F71700630C07028327440123240400F3
:1042F800B307F040232CF4008327040113050000C2
:10430800E39807F28317C40013F70708E30207F2DC
:1043180093E707042316F4006FF05FF193F7270083
:104328001307000063940700032744012324E400D3
:104338006FF09FFC130101FF232481001304050083
:10434800138505009717000023AA072A23261100C2
:10435800EFB01FD79307F0FF631CF5009717000015
:104368009387C72983A70700638407002320F400E5
:104378008320C1000324810013010101678000002C
:10438800130101FF23248100130405001385050090
:1043980093050600138606009717000023A007263A
:1043A80023261100EFB09FE39307F0FF631CF5008D
:1043B800971700009387872483A707006384070063
:1043C8002320F4008320C10003248100130101018C
:1043D80067800000130101F8232A910693840500E1
:1043E8008395E500232C8106232E1106130406006D
:1043F80063DE050083D7C40023A0060093F70708EF
:1044080063900704930700406F00C00313068101FF
:104418002326D100EF00D0388326C100E34C05FCE9
:104428000327C101B7F70000B3F7E70037E7FFFF3D
:10443800B387E70093B7170023A0F6006FF09FFC3F
:10444800930700042320F4008320C1070324810775
:104458008324410713050000130101086780000049
:1044680083D7C500130101FE232C8100232E1100E0
:10447800232A91002328210193F72700138405009C
:1044880063880702930774042320F4002328F400A8
:1044980093071000232AF4008320C101032481011B
:1044A80083244101032901011301010267800000EF
:1044B8009306C1001306810093040500EFF09FF1F5
:1044C800832581001309050013850400EFF0CFE868
:1044D800631005028317C40013F70720E31E07FAC9
:1044E80093F7C7FF93E727002316F4006FF09FF9AF
:1044F80097F7FFFF9387C71C23A4F4028357C400D0
:104508002320A4002328A40093E707082316F40017
:1045180083278100232AF4008327C10063820702CE
:104528008315E40013850400EF00902C630A05004E
:104538008357C40093F7C7FF93E717002316F400C7
:104548008357C4003369F900231624016FF0DFF4A0
:104558006780000067800000832786009387F7FF45
:104568002324F60063DC07000327860163C6E700FF
:104578009307A0006394F5006FF01FAB8327060034
:1045880013850500138717002320E6002380B70052
:1045980067800000130101FE232C8100232A91006B
:1045A800232821012326310123244101232E110030
:1045B800130905009389050013040600B304D60007
:1045C800130AF0FF63169400130500006F00C00182
:1045D800834504001386090013050900EFF0DFF78F
:1045E80013041400E31045FF8320C1010324810153
:1045F80083244101032901018329C100032A810081
:104608001301010267800000130101F6232C8108C1
:10461800232A91082328210923263109232E11084A
:10462800232441092322510923206109232E7107DC
:10463800232C8107232A91079309050093840500F9
:104648001309060013840600630805008327850103
:1046580063940700EFF00F8E97170000938787CDBC
:104668006392F41283A4490083D7C40093F78700A8
:10467800638E071283A70401638A07129307000257
:10468800A304F10293070003232201022305F10288
:1046980023268100930B5002971A0000938A8ACD33
:1046A800130C1000130BA000130409008347040027
:1046B8006384070063907715B30C244163860C026A
:1046C80093860C00130609009385040013850900DE
:1046D800EFF05FEC9307F0FF6302F52C83264102AD
:1046E800B38696012322D102834704006388072AF0
:1046F8009307F0FF1309140023280100232E01005B
:10470800232AF100232C0100A30901042324010614
:10471800834509001306500013850A00EF001012A4
:104728001304190083270101631A050C13F7070105
:104738006306070013070002A309E10413F78700C3
:10474800630607001307B002A309E10483460900C2
:104758001307A0026380E60C8327C1011304090034
:104768009306000013069000034704009305140005
:10477800130707FD6372E610638A060A232EF10009
:104788006F00C00A971700009387C7BC6396F400B0
:1047980083A489006FF05FED97170000938787B7B0
:1047A800E394F4EC83A4C9006FF01FEC9385040034
:1047B80013850900EFF01FA0E30205EC1305F0FFD5
:1047C8008320C1090324810983244109032901099C
:1047D8008329C108032A8108832A4108032B010879
:1047E800832BC107032C8107832C41071301010A7E
:1047F80067800000130414006FF05FEB3305554128
:104808003315AC00B3E7A7002328F100130904000F
:104818006FF01FF00327C100930647000327070026
:104828002326D10063400704232EE1000347040038
:104838009307E0026314F708034714009307A002E4
:10484800631AF7048327C100130424001387470061
:1048580083A707002326E10063CA0702232AF10081
:104868006F00C0053307E04093E72700232EE100DF
:104878002328F1006FF09FFBB387670393061000AE
:1048880013840500B387E7006FF01FEE9307F0FF6E
:104898006FF0DFFC13041400232A010093060000C4
:1048A80093070000130690000347040093051400C3
:1048B800130707FD637CE608E39206FA83450400C4
:1048C8001306300017150000130545ABEF000077FD
:1048D8006304050297170000938747AA3305F5403C
:1048E80093070004B397A7000325010113041400DC
:1048F8003365F5002328A1008345040013066000F2
:10490800171500001305C5A7130914002304B102E5
:10491800EF00C072630E050897B7FEFF9387076E16
:1049280063980704032701018327C1001377071041
:1049380063080702938747002326F1008327410273
:10494800B38747012322F1026FF01FD6B3876703AD
:104958009306100013840500B387E7006FF0DFF4B7
:104968009387770093F787FF938787006FF0DFFCC3
:104978001307C10097060000938606C21386040039
:10498800930501011385090097000000E700000066
:104998009307F0FF130A0500E312F5FA83D7C40062
:1049A80093F70704E39C07E0032541026FF05FE1FA
:1049B8001307C10097060000938606BE13860400FD
:1049C8009305010113850900EF00801B6FF05FFC60
:1049D800130101FD232A510183A70501930A07004A
:1049E80003A785002324810223229102232E31016B
:1049F800232C4101232611022320210323286101AE
:104A08002326710193090500138405009304060009
:104A1800138A060063D4E7009307070023A0F40075
:104A280003473404630607009387170023A0F400A4
:104A38008327040093F707026388070083A704000D
:104A48009387270023A0F400032904001379690041
:104A5800631E0900130B9401930BF0FF8327C40016
:104A680003A70400B387E7406342F90883270400DB
:104A78008346340493F70702B336D0006390070CDB
:104A88001306340493050A0013850900E7800A0019
:104A98009307F0FF6308F506832704001306400018
:104AA80003A7040093F767008326C400930400005B
:104AB8006398C700B384E64063D4040093040000FD
:104AC80083278400032704016356F700B387E74070
:104AD800B384F400130900001304A401130BF0FFBE
:104AE80063902409130500006F000002930610006C
:104AF80013060B0093050A0013850900E7800A00D6
:104B0800631A75031305F0FF8320C1020324810291
:104B180083244102032901028329C101032A810157
:104B2800832A4101032B0101832BC10013010103D7
:104B380067800000130919006FF05FF23307D40093
:104B480013060003A301C704034754049387160000
:104B5800B307F40093862600A381E7046FF05FF2A1
:104B6800930610001306040093050A001385090034
:104B7800E7800A00E30865F9130919006FF05FF68A
:104B8800130101FD23248102232291022320210302
:104B9800232E310123261102232C4101232A5101FE
:104BA800232861019389060083C685019307E006DF
:104BB80013090600930405001384050013863504C1
:104BC8006388F62863EAD70693073006638EF60AE9
:104BD80063EED700638C062A93078005638AF61E66
:104BE800930A24042301D4046F00800B9307400622
:104BF8006386F60093079006E394F6FE8327040085
:104C08000325070093F6070893054500638E0608F9
:104C1800832705002320B70063D807001307D002B5
:104C2800B307F040A301E404970600009386C67515
:104C38001307A0006F00800D93073007638EF624DA
:104C480063E2D7029307F006638EF6069307000720
:104C5800E398F6F883A7050093E7070223A0F50079
:104C68006F00400193075007638EF604930780078F
:104C7800E398F6F693078007A302F404970600006A
:104C88009386C6716F00801583270700938A2504D1
:104C98009386470083A707002320D7002381F504C4
:104CA800930710006F00402293F60704832705003E
:104CB8002320B700E38206F69397070193D70741AD
:104CC8006FF09FF5832504008327070013F8050874
:104CD80013854700630808002320A70083A707005F
:104CE8006F00400193F505042320A700E38805FE23
:104CF80083D707001307F0066380E61497060000C1
:104D0800938686681307A000A30104048325440042
:104D18002324B40063C80500032504001375B5FFF8
:104D28002320A40063960700930A06006382050205
:104D3800930A0600B3F5E702938AFAFFB385B60033
:104D480083C505002380BA00B3D5E70263FEE70EEA
:104D5800930780006314F7028327040093F7170072
:104D6800638E0700032744008327040163C8E70014
:104D780093070003A38FFAFE938AFAFF330656417E
:104D88002328C40013870900930609001306C100ED
:104D98009305040013850400EFF09FC3130AF0FF86
:104DA800631A45131305F0FF8320C102032481020F
:104DB80083244102032901028329C101032A8101B5
:104DC800832A4101032B01011301010367800000BD
:104DD800A382D504970600009386065B832504000A
:104DE8000325070013F80508832705001305450068
:104DF800630808022320A70013F7150063060700BD
:104E080093E505022320B40013070001E39E07EE93
:104E18008325040093F5F5FD2320B4006FF0DFEE41
:104E280013F805042320A700E30808FC939707015B
:104E380093D707016FF05FFC970600009386C6546E
:104E4800130780006FF05FEC938705006FF09FEE0B
:104E580083A605008327070083A5450113F80608E4
:104E680013854700630A08002320A70083A70700CB
:104E780023A0B7006F0080012320A70093F6060443
:104E880083A70700E38606FE2390B70023280400C3
:104E9800930A06006FF01FEF8327070003A645005B
:104EA80093050000938647002320D70083AA0700B4
:104EB80013850A00EF008018630605003305554185
:104EC8002322A400832744002328F400A301040418
:104ED8006FF05FEB8326040113860A00930509002F
:104EE80013850400E7800900E30E45EB83270400DF
:104EF80093F72700639407048327C1000325C400A0
:104F0800E354F5EA138507006FF01FEA93061000D3
:104F180013860A009305090013850400E780090039
:104F2800E30265E9130A1A008327C4000327C100B6
:104F3800B387E740E34CFAFC6FF01FFC130A00004C
:104F4800930A9401130BF0FF6FF01FFE130101FF8A
:104F5800232481001304050013850500930506002A
:104F6800138606009707000023AA07682326110066
:104F7800EFB04FAE9307F0FF631CF50097070000F2
:104F88009387C76783A70700638407002320F4007B
:104F98008320C10003248100130101016780000000
:104FA800130101FF23248100130405001385050064
:104FB800930506009707000023A207642326110023
:104FC800EFB08F959307F0FF631CF500970700007B
:104FD8009387C76283A70700638407002320F40030
:104FE8008320C100032481001301010167800000B0
:104FF800130101FF23248100130405001385050014
:105008009707000023AC075E23261100EFB08F96A8
:105018009307F0FF631CF500970700009387075E6E
:1050280083A70700638407002320F4008320C100BE
:1050380003248100130101016780000093F5F50F37
:105048003306C5006316C50013050000678000001D
:1050580083470500E38CB7FE130515006FF09FFE2C
:04506800845401006B
:10506C002E2E2F7372632F4273702F4472697665E4
:10507C00722F686D655F6770696F2E6300000000AA
:10508C00504C4943204770696F20496E74657272A9
:10509C00757074204572722E2E2E2100504C49438F
:1050AC00204770696F20496E746572727570742038
:1050BC00457865637574652E2E2E2E002E2E2F735B
:1050CC0072632F4273702F4472697665722F686D0C
:1050DC00655F706C69632E63000000000A205F5FDF
:1050EC00504C494320457863757465204572722194
:1050FC00200000002E2E2F7372632F4273702F44EA
:10510C0072697665722F686D655F74696D65722E54
:10511C00630000002E2E2F7372632F4273702F4486
:10512C0072697665722F686D655F756172742E6336
:10513C0000000000726563656976656420646174C3
:10514C00613A2025640D00005B57524954455D209F
:10515C00696D67416464723A2025642C2064617423
:10516C00613A2025640A00005B524541445D206988
:10517C006D674164647252643A2025642C2064612A
:10518C0074613A2025640A00EC280100F82801001B
:10519C00E0280100F8280100C8280100F8280100C7
:1051AC00BC280100F8280100F8280100F8280100AB
:1051BC00F8280100F8280100D4280100536F667408
:1051CC007761726520496E746572727075742E2EDB
:1051DC002E2E00002F6E205F5F457863657074691A
:1051EC006F6E204F6363757265643A20466174611B
:1051FC006C204661756C74212F6E00004253505F19
:10520C0056455253494F4E3A202578210A0000004A
:10521C00C7EBCAE4C8EB3136B8F6D7D6BDDAB5C49D
:10522C00D7D6B7FBCAFDBEDD0A0D0000BDD3CAD56B
:10523C00B5BDB5C4CAFDBEDDA3BA00000A425350C9
:10524C005F56455253494F4E3A202578210A0000AB
:10525C005B52657365745D20777220666C61673A8A
:10526C002025642C20726420666C61673A202564CA
:10527C00200D00000D20777220666C61673A2025A6
:10528C00642C20726420666C61673A202564200DC2
:10529C00000000000D206C6F616420696D61676512
:1052AC0020200D000D20736F667420726573657479
:1052BC0021200D00466C617368204944A3BA202557
:1052CC0078200A00253032780000000053656E64A7
:1052DC00446174613B20307825780A005265616422
:1052EC0020446174613A20307825780A000000006F
:1052FC004572723A2046696C656E616D652D257339
:10530C00A3AC204C696E652D25640A0000000000DA
:10531C000000000000000000000000000000000081
:10532C000000000000000000000000000000000071
:10533C000000000000000000000000000000000061
:10534C000000000000000000000000000000000051
:10535C000000000000000000000000000000000041
:10536C00000000000000000000000000232D302B86
:10537C0020000000686C4C006566674546470000DD
:10538C00303132333435363738394142434445466F
:10539C000000000030313233343536373839616231
:1053AC00636465660000000000001F007C000000C4
:1053BC007C100000000000800100010004000000CF
:1053CC0004100000020000000200020008000000AF
:1053DC00081000000400000003000800200000007A
:1053EC00201000000001000004000900240000004F
:1053FC00241000000002000005000A002800000034
:10540C0028100000000400000600190064000000D1
:10541C0064100000000000020700040010000000EF
:10542C00101000001000000008000500140000001F
:10543C0014100000200000000900060018000000F5
:10544C0018100000400000000A001E007800000048
:10545C0078100000000000400B000C003000000031
:10546C0030100000001000000C000D003400000093
:10547C003410000000200000000000003853010030
:10548C0058530100185301000000000000000000F8
:10549C000000000000000000000000000000000000
:1054AC0000000000000000000000000000000000F0
:1054BC0000000000000000000000000000000000E0
:1054CC0000000000000000000000000000000000D0
:1054DC000000000000000000000000000856010061
:1054EC000000300000003000845401000000000077
:0654FC00000000000000AA
:0400000310000000E9
:00000001FF
